:10160C00D3EF9400EE9400401600000075080B75A3
:0F161C0009BED509FDD508FAEF1F70E41E80E165
:01162B00229C
:10172200D3EF9400EE9400400A000000EF1F70F027
:041732001E80ED2206
:1016C00043BC807F0A7E0012160C53DEFC43DE0C06
:0A16D00053BCDF53A8DF43DE2022E5
:1015CA00E4FDFC53BCF0EF444042BCE5BC30E5FB13
:1015DA0053BCDF53BCBFAFBDEFADBEFCEDAE04FFE5
:0115EA0022DE
:0D000E00E4F5C7F5C5F5C675C380F5C4223D
:10166B0075C78075F50C75C5038FC4EEF5C375C6CC
:0E167B005A75C6A57F0A7E0012160C02000EDC
:1015A80075C78075F50C75C5028FC4EEF5C3AF0518
:1015B8008FC275C65A75C6A57F0A7E0012160C0220
:0215C800000E13
:10162C0075C78075F50C75C5018FC4EEF5C375C60D
:10163C005A75C6A57F0A7E0012160CAFC202000EA8
:10164C00759418E4F593F5927591F875960EF595D9
:0F165C0075B2C2F5B175B48EF5B3F5CAF5C922F2
:101584003D3D3D3D3D3D3D3D3D3D20636F6465201A
:101594007374617274203D3D3D3D3D3D3D3D3D3D97
:0415A400200D0A000C
:10142C0043BA8012164C1216DA1216C012170C128E
:10143C0016F312175E1214AE12173612000612179C
:10144C00BC121771121781D2AF1214E97BFF7A15F7
:10145C0079841201091211A312151E1215EB121721
:03146C00A180F26A
:1014AE0043BA8090FEB6E0F090FEEDE4F090FEEAD6
:1014BE007470F090FEED7401F090FEF27404F0A3DF
:1014CE007451F090FEF0E4F0A37431F090FEB5E0AC
:0B14DE004410F090FEE0E04401F0221A
:05000600D288D2A822FF
:10175E00438E805389F0758ACD758CD4C28DD28C10
:03176E00D2A922DB
:0A17BC00538EBF53890F438910229A
:1017710053D1FDE4F5D575D4DC43D10843AF202224
:1016DA0053A23F759850438E01438E0475D7E8751F
:0916EA00D6FF438E1075A81022F2
:10170C0075841043844043D12075D3E875D2FF43D0
:06171C00D18043AF102252
:040C3A00410107006D
:1016F300E4900000F0900081F0900101F0F0A3F07D
:09170300A3F0A3F0A3F0C28422BC
:0300930002112433
:10112400C0E0C083C082C0D075D000C007E5843061
:10113400E12A5384FD900101E0601AA3E0FF04F06A
:1011440074012FF582E43400F583E0F58590010104
:10115400E014F08007900102E4F0C284E58430E0FA
:10116400335384FE900000E07021900105E0D39495
:10117400804002E4F0900105E02481F582E434002B
:10118400F583E585F0900105E004F0900103E4F0B7
:0F119400A37405F0D007D0D0D082D083D0E03242
:03000B0002146F6D
:10146F00C0E0C083C082C0D0900103E07002A3E04F
:10147F006024900104E024FFF0900103E034FFF0BA
:10148F00E07002A3E0700F900105E0D394004006D6
:0F149F009000007401F0D0D0D082D083D0E03222
:0300230002168939
:10168900C0E0C083C082309907C299900107E4F095
:0C169900309802C298D082D083D0E0329A
:0B17B1008F99900107E070FA04F0220D
:1016A500D2907F027E00121722C2907F197E00120F
:0B16B500160CD2907F1E7E0002172250
:10002600E4900210F090020FF03090FD7F287E00E1
:1000360012172230901F2090FD900210E0FF9002D0
:100046000FE0FEC374079EFEF87401088002C333F6
:10005600D8FC4F801B900210E0FF90020FE0FEC319
:1000660074079EFEF87401088002C333D8FCF45F5F
:10007600900210F090020FE004F0E0C3940840A94B
:05008600900210E0FFF4
:01008B002252
:101211001216A520905D3090FD2090FD12002690C1
:10122100020BEFF012002690020CEFF01200269054
:10123100020DEFF012002690020EEFF0120026D2FE
:101241009090020CE0FD90020BE0F92DFDE433FCDF
:1012510090020DE0FE7A002DFDEA3CFCA3E02DFD9D
:10126100EA3CFCEFB5050CEAB5040890010DEEF07F
:03127100A3E9F0FE
:011274002257
:1014E9007F107E0012162CEFB4FF2790024474037C
:1014F900F0A37401F0A37407F0A37428F0E4A3F037
:10150900A37402F0A37450F0E4A3F0A3F0A3F012C3
:05151900109E020ED738
:10109E00E4FFFE12166B900244E0FDE4FFFE121513
:1010AE00A8900245E0FD7F017E001215A890024631
:1010BE00E0FD7F027E001215A8900247E0FD7F033F
:1010CE007E001215A8900248E0FD7F047E001215E6
:1010DE00A8900249E0FD7F057E001215A890024AF5
:1010EE00E0FD7F067E001215A890024BE0FD7F0703
:1010FE007E001215A890024CE0FD7F087E001215AE
:10110E00A890024DE0FD7F097E001215A87D587F44
:06111E00107E000215A87E
:100ED700E4FFFE12162C900244EFF0E075F0B8A480
:100EE700FF90FEF9E5F0F0A3EFF07F017E00121608
:100EF7002C900245EFF01217C67F027E0012162CC7
:100F0700900246EFF0E0FE540190023CF0EEC3136E
:100F17005401A3F0900246E01313540190023EF0EF
:100F27007F037E0012162C900247EFF012174A7FBC
:100F3700047E0012162C900248EFF0900240F01247
:100F470015EB7F057E0012162C900249EFF09002F8
:100F570041F01213947F067E0012162C90024AEF7E
:100F6700F090010BF090024BE0900235F090024CAC
:100F7700E0FEA3E0FDEDFF900236EEF0A3EFF022D6
:100C3E0060FC010F03D503FA04200446046D0495ED
:100C4E0004BE04E70510053A0565059005BB05E7EA
:100C5E000613063F066C069906C606F30720074DD7
:100C6E00077A07A707D40800082D0859088508B188
:100C7E0008DC09070931095B098409AD09D609FDAC
:100C8E000A240A4B0A710A960ABB0ADE0B020B24CF
:100C9E000B460B670B870BA70BC60BE40C020C1E47
:100CAE000C3A0C560C700C8A0CA40CBC0CD40CEC2C
:100CBE000D020D190D2E0D430D570D6B0D7E0D9062
:100CCE000DA20DB40DC50DD50DE50DF50E040E12CC
:100CDE000E200E2E0E3B0E480E550E610E6D0E782A
:100CEE000E830E8D0E970EA10EAB0EB40EBD0EC65C
:100CFE000ECF0ED70EDF0EE70EEF0EF60EFD0F0423
:100D0E000F0B0F110F170F1D0F230F290F2F0F355D
:100D1E000F3A0F3F0F440F490F4E0F530F580F5CF2
:100D2E000F600F650F690F6D0F710F740F780F7CC9
:0E101300900211EBF0A3EAF0A3E9F0A3EDF0D8
:10102100E4900218F0A3F0900217F0900214E0147B
:10103100FF900217E0FEC39F505A900211E0FBA3FC
:10104100E0FAA3E0F975F002EEA4F58285F08312CF
:101051000579FF900215E0FCA3E0FDC39FEC95F03C
:10106100402AA3E02401FFE433FEEF25E0FFEE3345
:10107100FE8F828E83120579FFC3ED9FEC95F050B0
:101081000B900217E0FFA3E4F0A3EFF0900217E04A
:0C10910004F08097900218E0FEA3E0FF3E
:01109D002230
:0512D90090020DEFF092
:1012DE00E490020FF0A3F090020EF090020DE0FFEA
:1012EE001215CA900210E02FF090020FE03EF0901F
:1012FE00020EE004F0E0C3940A40E090020FE0FE1C
:10130E00A3E0FF7C007D0A12052490020FEEF0A3ED
:10131E00EFF07B017A01790F90020FE0FFA3E090CE
:0C132E000215CFF0A3EFF07D7E0210133B
:10173600E4900239F0900243F090010CF0D2C3D24B
:04174600C2D2C12228
:10178100E4900233F0900235F0A3F0A3F0A3F0222D
:0300030002155291
:10155200C0E0C083C082C0D075D000C00690023AFD
:10156200E0FEA3E0F58BEEF58D9002397401F09068
:101572000243F0D28ED2ABD006D0D0D082D083D06C
:02158200E03255
:03001B0002133A93
:10133A00C0E0C083C082C0D0900239E06401703737
:10134A00F090023CE0B4010990023FE0B40102C20D
:10135A00C190023DE0B4010990023FE0B40102C22B
:10136A00C290023EE0B40107A3E0B40102C2C37511
:10137A008BF7758DFF800AD2C3D2C2D2C1C28EC288
:0A138A00ABD0D0D082D083D0E03287
:10174A00EF75F05AA424B4FEE5F034DC90023AF0C6
:04175A00A3CEF02208
:0A17C600EFB40103C2A322D2A32254
:10179100EF75F0B8A4FF90FEF9E5F0F0A3EFF022A9
:1015EB00900240E0B40111900242E090FEFDB40184
:1015FB00028008E4F0C2A82290FEFD7480F0D2A80D
:01160B0022BC
:10151E0090010CE0B4012C7F041212D9900108EF57
:10152E00F012121190010BE0FF900108E0C39F40F2
:10153E0007E490023FF0800690023F7401F0E490C1
:04154E00010CF0227A
:1017A100900238E0B4010812109EE4900238F02251
:10139400EF24FE601E146032240270477F1E121771
:1013A4004A7F03121791900247741EF0900244740E
:1013B40003802C7F3212174A7F0412179190024740
:1013C4007432F0900244740480157F5012174A7FDF
:1013D400061217919002477450F09002447406F07C
:0413E40012109E2223
:100D3E0042024E00004102520042025300004202A3
:030D4E005500004D
:03009B0002070455
:10070400C0E0C0F0C083C082C0D075D000C000C0BB
:0707140004C005C006C00788
:10071B009002423093057401F08002E4F090010CDA
:10072B00E0702690024FE004F0700690024EE00459
:10073B00F090024EE07004A3E06464700C90010C26
:10074B0004F090024EE4F0A3F0900243E0B40125D4
:10075B00900256E004F07006900255E004F090020F
:10076B0055E0B40110A3E0B4F40B900255E4F0A3F0
:10077B00F0900243F0900243E06401703A90023C27
:10078B00E0B4010D90023FE0B40106900250E0048A
:10079B00F090023DE0B4010D90023FE0B4010690F1
:1007AB000251E004F090023EE0B4010BA3E0B4016F
:1007BB0006900252E004F0900251E0FF900250E0EC
:1007CB002FFFE433FE900252E07C002FFFEC3EFE45
:1007DB00900247E0FD120512900253EEF0A3EFF0EA
:1007EB00C39430EE94754060900234E004F09002B4
:1007FB0053E4F0A3F0900252F0900251F0900250AB
:10080B00F0900234E0643C703FA3E004F0900234BB
:10081B00E4F0A3E090024BF09002387401F09002E8
:10082B0035E0B43C23900237E004F07006900236BA
:10083B00E004F0900236E0FCA3E0FDEC90024CF0FB
:08084B00A3EDF0900235E4F08A
:10085300D007D006D005D004D000D0D0D082D0832A
:05086300D0F0D0E032EE
:1011A300900000E064017065F07B017A0079819022
:1011B3000105E024FEFD121275AD07AC0690010592
:1011C300E0FB247FF582E43400F583E0FE74802B9A
:1011D300F582E43400F583E0FBEBFFE4900105F0D6
:1011E300EDB50729ECB50625900081E0B41B1EA3DD
:1011F300E024FC600F24FE600E24F6600D240D70C5
:0D1203000C020868020B1B020E191209C331
:0112100022BB
:1008680090025A7403F0900085A3E025E0900259A5
:10087800F0900083E0FEA3E0FDEDFF90025CEEF057
:10088800A3EFF0900001741BF0A37403F0900259D9
:10089800E0900003F090020BEEF0A3EFF090025905
:1008A800E0C313FF90025DE02FFF90025CE034008C
:1008B800FE90020BE0FCA3E0FDC39FEC9E40030208
:1008C80009B7E4900258F0900257F0EC600302096F
:1008D80076ED14602B146033146072146079147010
:1008E800030209692405600302097690FEF9E0FE17
:1008F800A3E0FF7C007DB8120524900258EF800821
:10090800A2A3B3E433900258F0805E90023DE02544
:10091800E0FF90023CE04FFF90023EE025E025E03A
:100928004F900258F090023AE0FEA3E0FFEF2470E7
:10093800FFEE341DFEE434FFFDE434FFFCE47B4BA2
:10094800FAF9F81213E8900257EFF080219002406C
:10095800E0900258F08012900241E0900258F08036
:100968000890010BE0900258F0E4900257F09002D2
:1009780057E0FF90025AE0FE04F074012EF582E47D
:100988003400F583EFF0900258E0FF90025AE0FE41
:1009980004F074012EF582E43400F583EFF0900240
:1009A8000CE004F0700690020BE004F00208A59039
:0B09B8000259E02403FD7F03020D52F2
:100B1B0090025A7403F0900085A3E025E0900259EF
:100B2B00F0900083E0FEA3E0FDEDFF90025CEEF0A1
:100B3B00A3EFF0900001741BF0A37404F090025922
:100B4B00E0900003F090020BEEF0A3EFF09002594F
:100B5B00E0C313FF90025DE02FFF90025CE03400D6
:100B6B00FE90020BE0FCA3E0FDC39FEC9E40030252
:100B7B000C2EE4900258F0900257F0EC7064ED14D8
:100B8B00602114602714603114603814604424050C
:100B9B0070507F041212D9900258EFF0E490025774
:100BAB00F0803FE4900257F0A3F0803690010EE006
:100BBB00900257F090010D8012E4900257F09002D2
:100BCB00428008E4900257F0900235E0900258F012
:100BDB008010900236E0FCA3E0FDEC900257F0A3EE
:100BEB00EDF0900257E0FF90025AE0FE04F0740122
:100BFB002EF582E43400F583EFF0900258E0FF907D
:100C0B00025AE0FE04F074012EF582E43400F58301
:100C1B00EFF090020CE004F0700690020BE004F091
:0F0C2B00020B58900259E02403FD7F04020D5282
:100E1900900084E014602C14603B1460701470031B
:100E2900020EAB147003020EC124056003020ECD3D
:100E3900900086E0FF121791900086E0900244F03E
:100E4900020ECD900086E0FF1217C6900086E09052
:100E59000245F0806F900086E0FE540190023CF05C
:100E6900EEC3135401A3F0900086E01313540190CC
:100E7900023EF0900085E0FF12174A900086E0904C
:100E89000246F0900085E0900247F0803790008696
:100E9900E0900240F01215EB900086E0900248F0D5
:100EA9008022900086E0FF900241F0121394900096
:100EB90086E0900249F0800C900086E090010BF0EA
:0E0EC90090024AF07D087F06120D5202109E24
:1009C30090025B7407F0900087E0900259F090006A
:1009D30083E0FEA3E0FDEDFF90025CEEF0A3EFF0F9
:1009E30090020BEEF0A3EFF0900259E0C313FF90D7
:1009F300025DE02FFF90025CE03400FE90020BE00A
:100A0300FCA3E0FDC39FEC9E4003020B1190025B2D
:100A1300E02481F582E43400F583E0900257F090FE
:100A2300025BE02482F582E43400F583E09002580F
:100A3300F0EC6003020AF6ED14602C14603B1460C2
:100A430070147003020AC9147003020AEA240560D1
:100A530003020AF6900258E0FF121791900258E041
:100A6300900244F0020AF6900258E0FF1217C69073
:100A73000258E0900245F0807A900258E0FE54015B
:100A830090023CF0EEC3135401A3F0900258E0131C
:100A930013540190023EF0900257E0FF12174A9060
:100AA3000258E0900246F0900257E0900247F0802F
:100AB30042900258E0900240F01215EB900258E089
:100AC300900248F0802D900258E0900241F090028D
:100AD30057E0B40108900241E0FF121394900258CA
:100AE300E0900249F0800C900258E090010BF090E6
:100AF300024AF090025BE02402F090020CE004F062
:100B030060030209EB90020BE004F00209EB7D089D
:080B13007F10120D5202109E2A
:050D520090020DEDF020
:100D5700EF24FC600F24FE604F24F66064240D60CE
:100D670003020E067B017A00790190020DE0FD1265
:100D7700127590020EEEF0A3EFF090020EE0FEA3C4
:100D8700E0FD90020DE0FC2402F582E43400F583D7
:100D9700EDF0EEFF74012CF582E43400F583EFF0FB
:100DA70090020DE02402805378017C007D017B01D5
:100DB7007A0079817E007F081204D390020DE080CB
:100DC7003A78017C007D017B017A0079817E007F82
:100DD700061204D37B017A0079017D061212759001
:100DE700020EEEF0A3EFF090020EE0FEA3E09000FB
:100DF70008F0EE900007F090020DE0900101F0D2AC
:100E0700847F027E0012160C4384027F017E00025B
:020E1700160CB7
:05127500900210EDF0F5
:10127A0074FFA3F0A3F01204F9FF900211E0F0A3A7
:10128A00E06FF0E4FD900211E0FEA3E0FF30E01908
:10129A00EEC313FEEF13FFEE64A0FEEF6401FF90AE
:1012AA000211EEF0A3EFF0800B900211E0C313F0ED
:1012BA00A3E013F00DEDB408CC740129F9E43AFA6D
:0E12CA00900210E014F070AEA3E0FEA3E0FF6F
:0112D80022F3
:03000000020F8765
:0C0F8700787FE4F6D8FD758121020FCEC2
:10040300E709F608DFFA8046E709F208DFFA803EDB
:1004130088828C83E709F0A3DFFA8032E309F608C8
:10042300DFFA8078E309F208DFFA807088828C8330
:10043300E309F0A3DFFA806489828A83E0A3F608E4
:10044300DFFA805889828A83E0A3F208DFFA804CBE
:1004530080D280FA80C680D4806980F28033801095
:1004630080A680EA809A80A880DA80E280CA8033FE
:1004730089828A83ECFAE493A3C8C582C8CCC58376
:10048300CCF0A3C8C582C8CCC583CCDFE9DEE78046
:100493000D89828A83E493A3F608DFF9ECFAA9F0C5
:1004A300EDFB2289828A83ECFAE0A3C8C582C8CC1B
:1004B300C583CCF0A3C8C582C8CCC583CCDFEADE34
:1004C300E880DB89828A83E493A3F208DFF980CC96
:1004D30088F0EF60010E4E60C388F0ED2402B4048F
:1004E3000050B9F582EB2402B4040050AF23234536
:0604F30082239004537304
:1004F900BB010689828A83E0225002E722BBFE0201
:09050900E32289828A83E4932233
:10051200EF8DF0A4A8F0CF8CF0A428CE8DF0A42EFD
:02052200FE22B7
:10052400BC000BBE0029EF8DF084FFADF022E4CCBB
:10053400F875F008EF2FFFEE33FEEC33FCEE9DEC84
:10054400984005FCEE9DFE0FD5F0E9E4CEFD22EDCA
:10055400F8F5F0EE8420D21CFEADF075F008EF2F14
:10056400FFED33FD4007985006D5F0F222C398FD05
:050574000FD5F0EA22A2
:10057900BB0110E58229F582E5833AF583E0F5F0C0
:10058900A3E0225009E92582F886F008E622BBFE9D
:100599000AE92582F8E2F5F008E222E5832AF583E3
:0805A900E993F5F0A3E99322A8
:1013E800C2D5E830E70FB2D5E4C39BFBE49AFAE430
:1013F80099F9E498F8EC30E717B2D512141E1206E2
:101408002CE4C39BFBE49AFAE499F9E498F8800386
:1014180012062C30D50DE4C39FFFE49EFEE49DFD2B
:04142800E49CFC2222
:10009E00E508240EF582E43402F583E0050822908B
:1000AE00020B30070390020EE475F0011206BE0239
:1000BE0004F92000E97F2ED2008018EF540F24900F
:1000CE00D43440D4FF30040BEF24BFB41A005003D5
:1000DE002461FFE50960021509050CE50C700205A7
:1000EE000B30070E90020BE475F0011206BEEF0204
:1000FE0005DE0217B17403D2078003E4C207F508C8
:10010E0090020B1206D5E4F509F50BF50CE5096026
:10011E00077F201200E180F5750AFFC201C200C2FE
:10012E0002C203C205C206C2081200ADFF700D3036
:10013E0007057F001200F2AF0CAE0B22B4255FC292
:10014E00D5C2041200ADFF24D0B40A00501A75F0C7
:10015E000A780930D50508B6FF0106C6A426F62092
:10016E00D5047002D20380D924CFB41A00EF500404
:10017E00C2E5D2040202F3D20180C6D20080C0D200
:10018E000280BCD2D580BAD20580B47F201200E1A5
:10019E002002077401B5090040F112009EFF120003
:1001AE00E102011BD208D206809512009EFB1200BE
:1001BE009EFA12009EF94A4B700679C47A037BFFB1
:1001CE0020022EE509602A7E008E827583001205BC
:1001DE00B160060EEE650A70F0C2D5EBC0E0EAC063
:1001EE00E0E9C0E0EE12033AD0E0F9D0E0FAD0E058
:1001FE00FB1204F9FF60AAEBC0E0EAC0E0E9C0E040
:10020E001200E1D0E02401F9D0E03400FAD0E0FB96
:10021E00E50A0460DCD50AD980877BFF7A0379363C
:10022E00D202809C791080027908C206C20880082A
:10023E00D2D5790A8004790AC2D5E50A047002F58E
:10024E000AE4FAFDFEFF12009EFC7B082001131249
:10025E00009EFD7B1030000A12009EFE12009EFFD3
:10026E007B20EC3382D592D55013C3E43000069F29
:10027E00FFE49EFEE42001039DFDE49CFCE4CBF82C
:10028E00C201EC700CCFCECDCCE824F8F870F38020
:10029E0017C3EF33FFEE33FEED33FDEC33FCEB33E0
:1002AE00FB994002FB0FD8E9EB300105F8D0E0C412
:1002BE0048B201C0E00AEC4D4E4F78207B0070C270
:1002CE00EAB50A0040BCC0E012033CD0F0D0E020FA
:1002DE000104C4C0E0C4B201C0F01200CAD0F0D50F
:1002EE00F0EB02011B1206DE01B8530232580189EF
:1002FE004C01854202364F023E44023E49019E4366
:08030E000244550228460228B2
:100316004502284703E450018D2D01912E01B42B8F
:1003260001952301B22003CD2A014D48000001ACFE
:100336003F3F3F00790AA2D5200314300509B910C2
:10034600020404B9080104A2D520060250010420C3
:1003560002689202B509005034C0E07F20300319CC
:100366007F30A20272067205500F120393C202C2B8
:1003760006C205C2087F30800F300503E9C0E012CF
:1003860000E1300503D0E0F9D0E0B509CC3005171F
:100396007F30B9100C1200E17F583004077F788057
:1003A60003B908031200E13002057F2D0200E17F48
:1003B600202008F87F2B2006F322920280CF286E99
:1003C600756C6C2900D20112009E3001F8C20178CA
:1003D6000930D50108F602014D2D50434958120047
:1003E6009E2403B405004001E49003DF931200D27B
:0D03F600743A1200D2D203750904020232DB
:100F930002142CE493A3F8E493A34003F68001F234
:100FA30008DFF48029E493A3F85407240CC8C3335F
:100FB300C4540F4420C8834004F456800146F6DF2E
:100FC300E4800B0102040810204080900C3AE47E78
:100FD300019360BCA3FF543F30E509541FFEE49323
:100FE300A360010ECF54C025E060A840B8E493A3EA
:100FF300FAE493A3F8E493A3C8C582C8CAC583CA15
:10100300F0A3C8C582C8CAC583CADFE9DEE780BECC
:010D510000A1
:1005B100BB010CE58229F582E5833AF583E02250FF
:1005C10006E92582F8E622BBFE06E92582F8E22249
:0D05D100E58229F582E5833AF583E4932263
:1005DE00BB010689828A83F0225002F722BBFE01FC
:0205EE00F322F6
:1005F00075F008758200EF2FFFEE33FECD33CDCCC2
:1006000033CCC58233C5829BED9AEC99E582984044
:100610000CF582EE9BFEED9AFDEC99FC0FD5F0D621
:10062000E4CEFBE4CDFAE4CCF9A88222B800C1B94B
:100630000059BA002DEC8BF084CFCECDFCE5F0CB89
:10064000F97818EF2FFFEE33FEED33FDEC33FCEBC2
:1006500033FB10D703994004EB99FB0FD8E5E4F97D
:10066000FA227818EF2FFFEE33FEED33FDEC33FC6A
:10067000C933C910D7059BE99A4007EC9BFCE99A5E
:10068000F90FD8E0E4C9FAE4CCFB2275F010EF2FA3
:10069000FFEE33FEED33FDCC33CCC833C810D707A3
:1006A0009BEC9AE899400AED9BFDEC9AFCE899F8DE
:0E06B0000FD5F0DAE4CDFBE4CCFAE4C8F92271
:1006BE00F8E0FBA3A3E0F925F0F0E58215827002C5
:0706CE001583E0FA38F02269
:0906D500EBF0A3EAF0A3E9F02226
:1006DE00D083D082F8E4937012740193700DA3A3AB
:1006EE0093F8740193F5828883E4737402936860BF
:0606FE00EFA3A3A380DFBF
:00000001FF
